:1000000012C02CC02BC02AC029C028C033C126C0B2
:1000100025C025C023C022C021C020C01FC01EC0D3
:100020001DC01CC01BC011241FBECFE5D4E0DEBF25
:10003000CDBF10E0A0E6B0E0E8EFF6E002C005902A
:100040000D92A637B107D9F720E0A6E7B0E001C0CE
:100050001D92AB38B207E1F7ECD14CC3D1CF1F9260
:100060000F920FB60F9211248F93EF93FF9380910D
:100070007400813011F588B3817C88BB80917E004B
:10008000813079F480917D00813009F0D4C0C09A2C
:1000900080917D00811101C0C09880917E008130E7
:1000A00009F0C09AE0918700F0918800EE0FFF1FE1
:1000B000E05AFF4F808182BBB2C0823011F588B315
:1000C000827C88BB80917E00813079F480917D00B4
:1000D000813009F0B4C0C19A80917D00811101C0C6
:1000E000C19880917E00813009F0C19AE091890029
:1000F000F0918A00EE0FFF1FE05AFF4F808182BB14
:100100008EC0833011F588B3847C88BB80917E00DB
:10011000823079F480917D00813009F094C0C29AD8
:1001200080917D00811101C0C29880917E00823053
:1001300009F0C29AE0918300F0918400EE0FFF1F56
:10014000E05AFF4F808182BB6AC0843011F588B3CA
:10015000887C88BB80917E00823079F480917D001C
:10016000813009F074C0C39A80917D00811101C073
:10017000C39880917E00823009F0C39AE091850097
:10018000F0918600EE0FFF1FE05AFF4F808182BB87
:1001900046C0853011F588B3807D88BB80917E0094
:1001A000833079F480917D00813009F054C0C49A85
:1001B00080917D00811101C0C49880917E008330C0
:1001C00009F0C49AE0917F00F0918000EE0FFF1FCC
:1001D000E05AFF4F808182BB22C0863001F588B390
:1001E000807E88BB80917E00833071F480917D0099
:1001F0008130A9F5C59A80917D00811101C0C59813
:1002000080917E00833009F0C59AE0918100F091E1
:100210008200EE0FFF1FE05AFF4F808182BB80916A
:1002200074008F5F873018F4809374001BC081E0E6
:100230008093740017C0882309F42ECF33CF88230E
:1002400009F44ECF53CF882309F46ECF73CF8823A0
:1002500009F48ECF93CF882309F4AECFB3CF882390
:1002600071F2D3CFFF91EF918F910F900FBE0F904E
:100270001F9018951F920F920FB60F9211248F9313
:1002800080917D00813019F410927D0005C08111AC
:1002900003C081E080937D0099990CC080917C001F
:1002A0008F5F873018F480937C0007C086E08093CE
:1002B0007C0003C0999A10927C0080917700883767
:1002C00018F48F5F8093770080917600811103C0CE
:1002D00081E0809376008F910F900FBE0F901F905A
:1002E00018959DEC899F912D11249695969596953C
:1002F000292F30E03093880020938700990F292F11
:10030000220F220F920F891B90E090938A00809316
:10031000890008959DEC899F912D112496959695BD
:100320009695292F30E03093840020938300990F15
:10033000292F220F220F920F891B90E090938600A5
:100340008093850008959DEC899F912D11249695A9
:1003500096959695292F30E03093800020937F006A
:10036000990F292F220F220F920F891B90E0909353
:100370008200809381000895C79A83ED90E30197EE
:10038000F1F700C00000C798089581B39FEF91BBBB
:1003900082B38F6382BB82B38F7382BB87B397BBF9
:1003A00088B318BA84B3887F84BB84B3886384BB62
:1003B00085B3876085BB85B3877C85BB83B7826047
:1003C00083BF89B7816089BF12BE8EB58B7F8EBD1A
:1003D0008EB583608EBD8EB588608EBD89B7806115
:1003E00089BF84E89EE19BBD8ABD1DBC1CBC2FE378
:1003F0008DE093E0215080409040E1F700C0000084
:10040000C79A83E294EF0197F1F700C00000C79804
:1004100078940895E199FECF9FBB8EBB6DBBE29AA5
:10042000E19A0895E199FECF9FBB8EBBE09A8DB310
:100430000895ABDF98990EC09A990CC060E081E0F6
:1004400090E0E8DF60E082E090E0E4DF60E083E0FD
:1004500090E0E0DF81E090E0E5DF80937B0082E0E8
:1004600090E0E0DF80937A0083E090E0DBDF809330
:100470007900DD24D3940CE36894FF24F2F813E0B0
:10048000D2E0CD2D6894EE24E6F880917B0029DF40
:1004900080917A003FDF8091790055DF999936C0CD
:1004A00080917C00863029F4C0937E00C093780050
:1004B00031C080917E00813069F4D0937E00D0936A
:1004C0007800999BFECF8FE493EC0197F1F700C081
:1004D000000015C0823069F410937E0010937800FC
:1004E000999BFECF8FE493EC0197F1F700C00000D9
:1004F00006C0833009F0F4C0F092780004C0809107
:100500007E00843018F010927E0064C080917E00DE
:10051000813071F59899E8C080917B008F5F80935E
:100520007B008FE493EC0197F1F700C0000024DF1B
:1005300080917B008C3310F000937B0060917B00F6
:1005400081E090E067DF9A9913C080917B00882357
:1005500049F0815080937B008FE493EC0197F1F791
:1005600000C0000009DF60917B0081E090E052DF75
:1005700080917E00823071F59899B9C080917A009F
:100580008F5F80937A008FE493EC0197F1F700C0BE
:100590000000F2DE80917A008C3310F000937A0034
:1005A00060917A0082E090E035DF9A9913C08091E3
:1005B0007A00882349F0815080937A008FE493EC8D
:1005C0000197F1F700C00000D7DE60917A0082E069
:1005D00090E020DF80917E00833071F5989917C0FC
:1005E000809179008F5F809379008FE493EC01977D
:1005F000F1F700C00000C0DE809179008C3310F06C
:10060000009379006091790083E090E003DF9A998C
:1006100013C080917900882349F08150809379003C
:100620008FE493EC0197F1F700C00000A5DE609124
:10063000790083E090E0EEDE80917800843009F06C
:1006400024CF80917600813029F488B38E2588BB31
:100650001092760080917B0081110EC080917A000B
:1006600081110EC08091790081110BC0C698109243
:10067000770080917B008111AB9A80917A00811183
:10068000AC9A809179008111AD9A8091770088377A
:10069000B9F480917B00882319F0815080937B000E
:1006A00080917A00882319F0815080937A0080919C
:1006B0007900882319F08150809379001092770097
:1006C00080917B00811101C0AB9880917A008111EB
:1006D00001C0AC98809179008111D7CEAD98D1CE70
:1006E000843008F010CF76CF9A9B2FCFA5CF9A9B5E
:0806F0005ECFA2CFF894FFCF0A
:1006F800C000F900A400B000990092008200F80040
:06070800800090000100DA
:00000001FF
